:020000040000FA
:10000000831681138801831287168716061C0C2815
:10001000871606181528052887160F3088001E2019
:100020008716F03088001E2005288716C330880008
:10003000242087163C308800242005288716A00B32
:100040001E28A10B1E2808008716AC30A000133014
:10005000A1000630A200A00B2B28A10B2B28A20B7D
:100060002B28000083160313850186018701880170
:10007000890183120313FF30880085118716000061
:1000800000008712871500000000871188010716FD
:10009000000000000712FF308800071509108910C2
:0200A000091144
:0400A20000340034F2
:02400E00B93FB8
:00000001FF
