:060000000A128A11FC2F18
:100F5A00831685018601870188018901FF30831282
:100F6A008800851187160000000083120313871278
:100F7A0087150000000083120313871188010716E2
:100F8A0000000000831203130712FF3088000715C0
:100F9A0009108910091108000A128A11AD270A12CC
:100FAA008A118716831608108312081083120313F6
:100FBA0008140330F2008A30F1005530F000F00BCB
:100FCA00E42FF10BE42FF20BE42FEB2F8312031320
:100FDA0008100330F2008A30F1005530F000F00BAF
:100FEA00F42FF10BF42FF20BF42FFB2FDB2F8301DD
:060FFA000A128A11D12F3A
:02400E00393F38
:00000001FF
