:020000040000FA
:100000008316811388018312061C092806181028FC
:1000100004280F3088001720F030880017200428AB
:10002000C33088001C203C3088001C200428A00B12
:100030001728A10B17280800AC30A0001330A1002E
:100040000630A200A00B2228A10B2228A20B2228F6
:10005000000083160313850187018801890106309A
:100060009F00831203130610FF3088008511871646
:10007000000000008716871100000000871188012A
:100080000716000000000712FF308800071509104E
:0400900089100911B9
:040094000034003400
:02400E00B93FB8
:00000001FF
