:060000000A128A11FC2F18
:100F6600831685018601870188018901FF30831276
:100F7600880085118716000000008312031387126C
:100F860087150000000083120313871188010716D6
:100F960000000000831203130712FF3088000715B4
:100FA60009108910091108000A128A11B3270A12BA
:100FB6008A118716FF30F300F401730883120313B6
:100FC60088000230F2000430F100BA30F000F00B75
:100FD600EA2FF10BEA2FF20BEA2F00000310F30CB5
:100FE6000130FF007F08F407093074020318DD2F73
:0A0FF600E02F83010A128A11D72FA1
:02400E00393F38
:00000001FF
